:03000000020006F5
:20005F0075213F75220675235B75244F75256675266D75277D75280775297F752A6F752BA4
:20007F0077752C7C752D39752E5E752F797530717531007532007533007534007535007501
:20009F003600753700753800753900753A00753B00753C00753D0F753E00753F28754000EF
:0800BF00E4F541F542020003E3
:030003000207CD24
:2000C70085820F85831085F011F5127A007B008A00EBF93395E0FEFFC3E8950FE99510EE8B
:2000E7009511EF951250070ABA00E40B80E1227E057F00EE24FFFCEF34FFFD8C068D07ECF0
:200107004D70F022AF82BFA0028005BFB00F8007E50F24FF92A022E50F24FF92B522AF82D1
:200127007E00BFA0028005BFB00E8007A2A0E433FE8005A2B5E433FE8E8222AF82BFA00244
:200147008005BFB0108008E54324FF92A18006E54324FF92B60200F6AF82754300C00712BB
:200167000142D007750F018F82C00712010BD0077543018F82C007120142D007750F008F3C
:2001870082C00712010BD0077543008F82020142AF82754300C007120142D007750F008F1D
:2001A70082C00712010BD0077543018F82C007120142D007750F018F8202010BAF827E00EA
:2001C7007543008F82C007C006120142D006D007E54420E712750F008F82C007C006120149
:2001E7000BD006D0078010750F018F82C007C00612010BD006D0077543018F82C007C0066B
:20020700120142D006D007E5442544F5440EBE080040AD7543008F82C007120142D0077518
:200227000F018F82C00712010BD0077543018F82C007120142D0078F82C007120125AE82DD
:20024700D0077543008F82C006120142D0068E8222AF827E007D007543018F82C007C00651
:20026700C005120142D005D006D0078F82C007C006C005120125E582D005D006D0076003F4
:20028700430601BD07005003EE2EFE7543008F82C007C006C005120142D005D006D0070DDD
:2002A700BD080040B28E82227582EE12047F7582B012019790424075F00FE41200C7758249
:2002C700AA12047F7582B012015F7544917582B01201C37582B0120258120E07AC82AD8360
:2002E700AEF0FF7582B0C007C006C005C0041202587582B01201977582A812047F7582B005
:2003070012015F7544917582B01201C37582B0120258120E0785824985834A85F04BF54CC0
:200327007582B01201977582A912047F7582B012015F7544917582B01201C37582B0120295
:2003470058120E0785824585834685F047F5487582B0120197C049C04AC04BC04C854582BD
:200367008546838547F0E54812096EA882A983AAF0FBE58124FCF581C045C046C047C048B5
:20038700888289838AF0EB120D44A882A983AAF0FBE58124FCF581E4C0E0C0E07480C0E0D9
:2003A700743EC0E0888289838AF0EB120BCFA882A983AAF0FBE58124FCF581D004D005D01D
:2003C70006D007C000C001C002C0038C828D838EF0EF12096EAC82AD83AEF0FFE58124FC9E
:2003E700F5818C828D838EF0EF227E007F00EE2431F876000EBE00010FC3EE940AEF648027
:20040700948040EA227582A012015F7544E07582A01201C37544007582A01201C37F00EFD2
:200427002431F987447582A0C0071201C3D0070FBF0A0040EA7582A0020197AF827582A096
:20044700C00712015F7544E07582A01201C3D0078F447582A01201C37582A0020197AF82DD
:200467007582ACC00712047FD0078F447582B01201C37582B0020197AF827582B0C007125D
:20048700015F7544907582B01201C3D0078F447582B00201C385824D85834E85F04FF55065
:2004A700E4F555F556F557F5581203F1750855750900750A40854D82854E83854FF0E5506B
:2004C700120A7D85825185835285F053F554C051C052C053C05490000075F0C874421209E1
:2004E7007985825185835285F053F554E58124FCF581E4C0E0C0E074C8C0E07442C0E085E2
:200507004D82854E83854FF0E550120B52AD82E58124FCF581ED704C85225C855582855639
:20052700838557F0E558120C9A750F0A751000120E12E5822421F987078F5B43078085516E
:20054700828552838553F0E554C007120C9A750F0A751000120E88AB82D007EB2421F987C9
:2005670004020716E4C0E0C0E0C0E0C0E0854D82854E83854FF0E550120B52AB82E5812424
:20058700FCF581EB7003020691E554B2E7F554755C40E4C0E0C0E07420C0E074C1C0E0850D
:2005A7004D82854E83854FF0E550120B07AB82E58124FCF581EB7066855582855683855772
:2005C700F0E558120C9A85825985835A750F0A751000120E88E5822421F9875B750F0A7528
:2005E7001000855982855A83120E12E5822421F9870574804DFF8551828552838553F0E520
:2006070054C007120C9A750F0A751000120E88AB82AD83D007EB2421F98704020716855564
:20062700828556838557F0E558120C9A750F0A751000120E12E5822421F9870374804BF56A
:200647005B8551828552838553F0E554120C9AAA82AB83750F0A751000C003C002120E8833
:20066700AD82D002D003ED2421F98707750F0A7510008A828B83C007120E12AD82AE83D090
:2006870007ED2421F987040207168555828556838557F0E558120C9A85825985835A750FB6
:2006A7000A751000120E88E5822421F9875C750F0A751000855982855A83120E12E58224E2
:2006C70021F9870674804EF55B8551828552838553F0E554120C9AAB82AE83750F0A7510FE
:2006E70000C006C003120E88AA82D003D006EA2421F98707750F0A7510008B828E83C0073F
:20070700120E12AD82AE83D007ED2421F98704855C31855B338F378C3922AF82C0071203D4
:20072700F1D007EF24FA403EEF2F2F9007367302076D02074802074F02075602075D0207E5
:20074700677531767533062275313875333F2275313E7533542275315075335475375E2238
:2007670075317C75335022A290E433FFA291E433FEA292E433FDA293E433FCEFB40100E48E
:2007870033FF530701AB3BEF4BF53BEEB40100E43325E0FE530602AF3BEE4FF53BEDB40164
:2007A70000E43325E025E0FD530504AF3BED4FF53BECB40100E433C40354F8FC530408AF8D
:2007C7003BEC4FF53B22D2007F01E4F55DF55EF55FF560900064E4F5F0C0071200C7758272
:2007E700211204427582811204427582E8120442758203120465D007C00712076ED007E51C
:200807003E24F95003020957E53E75F003A49008197302082E0208A50208CC0208F20208AB
:20082700F40208F60208F8E53B30E205753E0680C7C0071202AFA882A983AAF0FEC006C086
:2008470002C001C000C000C001C002C006855D82855E83855FF0E560120AF6AD82E5812457
:20086700FCF581D000D001D002D006D007ED600302095C888289838AF0EEC007C006C0025B
:20088700C001C00012049CD000D001D002D006D007885D895E8A5F8E60D20002095CE53B02
:2008A70030E205753E008008E53B30E303753E06853F82854083C007120CCE12049CD00726
:2008C700D20002095CE53B30E205753E008008E53B30E303753E06854182854283C007120C
:2008E7000CCE12049CD007D200806A8068806680647402553B553C60171FBF0100500C7F58
:2009070005758205C007120721D007433C028003753C007401553B553C60170FEF24FA50C9
:200927000C7F01758201C007120721D007433C018003753C007404553B553C60048F3E8056
:200947000B7408553B553C6003753E00D2008005753E00D2002000030207FFC00712040CE2
:07096700D007C2000207FFE8
:0B096E00A8811818C6B2E7C6020BCF24
:20097900120A1CBC0003020CFCEF60FA30D502B2D1E583B4FF03020D12E582B4FF03020D1F
:2009990012258340072482400B020CFC2483145003020D12F582EA8DF0A4A8F0EA8EF0A4ED
:2009B90028F8E435F0F9EB8DF0A428E935F0F9E433CA8FF0A429F9EA35F0FAEBF88EF0A48D
:2009D90029F9EA35F0FAE433FBEC8DF0A429F9EA35F0FAE43BFBE88FF0A42AFAEB35F0FB35
:2009F900E433CCFD8EF0A42AFAEB35F0FBE43CFCED8FF0A42BFBEC35F0FC20E703120A4ADE
:030A1900020CDBF1
:200A1C00AA82AB83A2F73392D1F5826002D2F7ACF0E58124F9F8E6FD08E6FE0886F008E63D
:0E0A3C00A2F73392D5F5836002D2F7AFF02215
:06003500E478FFF6D8FD9F
:200A4A007804EC7011E58224F8500AF582E4C9CACBFCD8EF22EC7820058220E713D58201AB
:130A6A0022C3E933F9EA33FAEB33FBEC33FCD8EA158222B9
:200A7D0085820B85830C85F00DF50EA908AA09AB0A850B82850C83850DF0E50EC003C00275
:200A9D00C001120F03120E48AC82AD83AEF0FFD001D002D00389828A838BF0EC120B37A305
:200ABD00ED120B37A3EE120B37A3EF120B37C004C005C006C007850B82850C83850DF0E56A
:190ADD000E12096EAC82AD83AEF0FFE58124FCF5818C828D838EF0EF22C5
:200013007900E94400601B7A00900F74780175A000E493F2A308B8000205A0D9F4DAF27510
:02003300A0FF2C
:110AF600FFA8811818120C6F120C51E96401F58222B4
:200B0700FFA8811818120C6FD2D133E6400730E70B7582012220E70675820022C2D1120CD3
:100B270051E97003F5822230D101B3E433F5822213
:1B0B370020F71130F6138883A88220F509F6A8837583002280FEF280F5F022BD
:200B5200FFA8811818120C6FD2D133E6400730E70B7582002220E70675820122C2D1120C88
:100B720051E97003F5822220D101B3E433F58222D8
:200B8200E50F451060467A01E50F25E0F50FE510334012F510E582950FE583951040030A08
:200BA20080E6C3E51013F510E50F13F50FC3E582950FF5F0E58395104005F58385F082C3BB
:0D0BC200E51013F510E50F13F50FDAE12231
:20003B007800E84400600A790175A000E4F309D8FC7800E84400600C7900900001E4F0A3C3
:04005B00D8FCD9FAFA
:200BCF00120A1C7900E583B58202800D5003120D2AE583C39582120EC0E5D0C465D020E1BA
:200BEF0017EA2DFAEB3EFBEC3FFC50097401120EC0EC4480FC020CDBC3EA9DFAEB9EFBEC7C
:190C0F009FFC500FC3E499F9E49AFAE49BFBE49CFCB2D1120A4A020CDB59
:200C28007A10E4FBFCE58225E0F582E58333F583EB33FBEC33FCEB950FF5F0EC95104006D2
:090C4800FCABF0438201DADD226D
:200C51007901AA82E68F82B5821318E6B5F00E18E6B5830918E68A82B58202790022B4809A
:200C71000FE5F0700AE5837006E58270027F00EFB6801518B6001018B6000B18B600060802
:090C910008087600220808082278
:200C9A00120F03700AE582458345F0700122E430D112F4700BE5F0F47006E58330E701225E
:140CBA0090800022700AE5F07006E58320E70122907FFF226D
:0D0CCE00AC83AB827A007900748E020E5167
:200CDB00B98003EA13B34010EA2401FAE43BFBE43CFC50047C800582BC000EBB000BBA005D
:200CFB0008E4F5F0F583F58222A2D1E582138CF092F78B838A8222E4F583F58275F080F41D
:0F0D1B00A2D11322E4F583F58275F0C0747F2214
:1A0D2A00E582C583F582A2D133A2D592D11392D5ECCFFCEBCEFBEACDFA2251
:200D4400120A1C30D502B2D1BF0009BC0003020D1F020D12BC0003020CFCE583B4FF0BE523
:200D640082B4FF03020D1F020CFCE582B4FF03020D12C395835007247F400B020CFC2480F3
:200D8400145003020D12F582C3ED9AEE9BEF9C40111582C3EA33F9EB33FAEC33FBE433FCEC
:200DA4008005E4CCCBCAF9C08275F019C3E99DEA9EEB9FEC9400D5F002802D400EE99DF990
:200DC400EA9EFAEB9FFBEC9400FCC3B3E833F8E58233F582E58333F583C3E933F9EA33FAF0
:200DE400EB33FBEC33FC80C4B3E4F938FAE43582FBE43583FCD082500405827C80120A4AF8
:030E0400020CF3EA
:0D000600758160120F5EE582600302000349
:0B0E0700E4AC82FBFAF97486020E7E58
:200E1200C2D5E58330E70DD2D5E4C39582F582E49583F583E51030E70BE4C3950FF50FE403
:160E32009510F510120B8230D50BE4C39582F582E49583F5832286
:200E4800FCABF0AA83A982749EF582C2D1EC30E716D2D1E9F42401F9EAF43400FAEBF434A9
:0D0E680000FBECF43400FC120A4A020CDB23
:130E7500FCABF0AA83A982749EC2D1F582120A4A020CDB10
:200E8800C2D5E58330E70DD2D5E4C39582F582E49583F583E51030E70DB2D5E4C3950FF5F7
:180EA8000FE49510F510120C2830D50BE4C39582F582E49583F5832274
:200EC0006040F82582500274FFF582E824F8501ECCCBCAF9E4CC24F85014CBCAF9E4CB243A
:200EE000F8500BCAF9E4CA24F8500379002224086010F8C3EC13FCEB13FBEA13FAE913F9ED
:030F0000D8F12203
:200F0300120F62C3749E958240397900120EC030D126E9F42401F582EAF43400F583EBF484
:200F23003400F5F0ECF43400700AE582458345F0700122E430E70F22EC20E71489828A83C5
:1B0F43008BF02230D10AE4F582F583F5F074802274FFF582F583F5F0747F22C1
:040F5E007582002276
:120F6200AA82AB83A2F73392D1F5826002D2F7ACF02294
:00000001FF
