:03000000020006F5
:20005F0075213F75220675235B75244F75256675266D75277D75280775297F752A6F752BA4
:20007F0077752C7C752D39752E5E752F7975307175310675320075335B75340075350075A0
:13009F00360075374F753800753966753A00D200020003D6
:030003000201BA3D
:2000B2007E057F00EE24FFFCEF34FFFD8C068D07EC4D70F022C2A1D2A01200B2D2A1120001
:2000D200B2C2A01200B2C2A122C2A11200B2C2A01200B2D2A11200B2D2A022AF827E00C228
:2000F200A1C007C0061200B2D006D007EF20E704C2A08002D2A0C007C0061200B2D2A11229
:2001120000B2D006D007EF2FFF0EBE080040D0C2A11200B2D2A01200B2D2A11200B2A2A097
:20013200E433FFC0071200B2D007C2A18F82227F007E00D2A130A003430701BE07005003F9
:20015200EF2FFFC2A10EBE080040E88F82221200C77582E01200ED7582001200ED7F00C0FA
:20017200071200B2D007EF2431F98782C0071200EDD0070FBF0A0040E60200DBAF82C00715
:200192001200C77582E01200EDD0078F821200ED0200DB7EF47F01EE24FFFCEF34FFFD8C30
:2001B200068D07EC4D70F0223000FD1201A575822112018E1201A575828112018E1201A5B1
:0701D200120160C20080E190
:06003500E478FFF6D8FD9F
:200013007900E94400601B7A009001DD780175A000E493F2A308B8000205A0D9F4DAF275B5
:02003300A0FF2C
:20003B007800E84400600A790175A000E4F309D8FC7800E84400600C7900900001E4F0A3C3
:04005B00D8FCD9FAFA
:0D00060075813A1201D9E582600302000302
:0401D9007582002209
:00000001FF
