:03000000020006F5
:06005F0075080002000319
:0300030002009C5C
:20006500A290E433FFA291E433FEA292E433FDA293E433FC74015F4208EE2EFE74025E420D
:2000850008ED2D25E0FD74045D4208ECC40354F8FC74085C420822120065E5086006C2A5A8
:0D00A500C2A48004D2A5D2A475080080EA90
:06003500E478FFF6D8FD9F
:200013007900E94400601B7A009000B6780175A000E493F2A308B8000205A0D9F4DAF275DD
:02003300A0FF2C
:20003B007800E84400600A790175A000E4F309D8FC7800E84400600C7900900001E4F0A3C3
:04005B00D8FCD9FAFA
:0D0006007581081200B2E58260030200035C
:0400B2007582002231
:00000001FF
