:03000000020006F5
:20005F0075213F75220675235B75244F75256675266D75277D75280775297F752A6F752BA4
:20007F0077752C7C752D39752E5E752F797530717531007532007533007534007535007501
:11009F003600753700753800753900753A000200035F
:030003000204955F
:2000B000AE82AF837C007D00C3EC9EED64808FF063F08095F050070CBC00ED0D80EA227EBD
:2000D000057F00EE24FFFCEF34FFFD8C068D07EC4D70F022AF82BFA0028005BFB00F800763
:2000F000E50F24FF92A022E50F24FF92B522AF827E00BFA0028005BFB00E8007A2A0E43313
:20011000FE8005A2B5E433FE8E8222AF82BFA0028005BFB0108008E53B24FF92A18006E5AF
:200130003B24FF92B60200CFAF827E00BFA0028005BFB00E8007A2A1E433FE8005A2B6E486
:2001500033FEC0061200CFD0068E8222AF82753B00C00712011BD007750F018F82C0071293
:2001700000E4D007753B018F82C00712011BD007750F008F82C0071200E4D007753B008FBE
:200190008202011BAF82753B00C00712011BD007750F008F82C0071200E4D007753B018F99
:2001B00082C00712011BD007750F018F820200E4AF827E00753B008F82C007C00612011B3A
:2001D000D006D007E53C20E712750F008F82C007C0061200E4D006D0078010750F018F823D
:2001F000C007C0061200E4D006D007753B018F82C007C00612011BD006D007E53C253CF51E
:200210003C0EBE080040AD753B008F82C00712011BD007750F018F82C0071200E4D00775A5
:200230003B018F82C00712011BD0078F82C0071200FEAE82D007753B008F82C00612011BF1
:20025000D0068E8222AF827E007D00753B018F82C007C006C00512011BD005D006D0078F07
:2002700082C007C006C0051200FEE582D005D006D0076003430601BD07005003EE2EFE754E
:200290003B008F82C007C006C00512011BD005D006D0070DBD080040B28E82227582EE1213
:2002B00004787582B01201949042401200B07582AA1204787582B012015C753C917582B062
:2002D0001201C07582B0120255120A61AC82AD83AEF0FF7582B0C007C006C005C0041202E2
:2002F000557582B01201947582A81204787582B012015C753C917582B01201C07582B01293
:200310000255120A6185824185834285F043F5447582B01201947582A91204787582B01241
:20033000015C753C917582B01201C07582B0120255120A6185823D85833E85F03FF540751F
:2003500082B0120194C041C042C043C044853D82853E83853FF0E540120605A882A983AA2A
:20037000F0FBE58124FCF581C03DC03EC03FC040888289838AF0EB12099EA882A983AAF068
:20039000FBE58124FCF581E4C0E0C0E07480C0E0743EC0E0888289838AF0EB120836A88257
:2003B000A983AAF0FBE58124FCF581D004D005D006D007C000C001C002C0038C828D838E68
:2003D000F0EF120605AC82AD83AEF0FFE58124FCF5818C828D838EF0EF227E007F00EE245E
:2003F00031F876000EBE00010FC3EE940AEF6480948040EA227582A012015C753CE0758262
:20041000A01201C0753C007582A01201C07F00EF2431F9873C7582A0C0071201C0D0070FA8
:20043000BF0A0040EA7582A0020194AF827582A0C00712015C753CE07582A01201C0D007BB
:200450008F3C7582A01201C07582A0020194AF827582ACC007120478D0078F3C7582B012A5
:2004700001C07582B0020194AF827582B0C00712015C753C907582B01201C0D0078F3C758D
:2004900082B00201C0D200E4F549F54AF54BF54CF54DF54EF54FF55090000A1200B0758242
:2004B0002112043B75828112043B75820312045E1202AC85824585834685F047F548C0452B
:2004D000C046C047C048854982854A83854BF0E54C12078DAD82E58124FCF581ED60030241
:2004F00005F7E4C0E0C0E0C0E0C0E08545828546838547F0E5481207B9AD82E58124FCF58D
:2005100081ED6006E548B2E7F5488545828546838547F0E548120901AC82AD83750F0A75F4
:200530001000C005C004120AB5AE82D004D005EE2421F98707750F0A7510008C828D83C0BD
:2005500007120A6CE5822421F98706430680C0061203EAD006D0078F318E3375084D7509C6
:2005700000750A408545828546838547F0E548120714AC82AD83AEF0FFC004C005C006C0F2
:200590000790000075F0C87442120610AC82AD83AEF0FFE58124FCF5818C828D838EF0EF27
:2005B000120901AE82AF83750F0A751000C007C006120AB5AC82D006D007EC2421F98705AB
:2005D0008D37750F0A7510008E828F83120A6CE582FE2421F987078F39D2008545498546E1
:1505F0004A85474B85484C2000030204C0120405C2000204C0F0
:0B060500A8811818C6B2E7C60208362C
:200610001206B3BC0003020956EF60FA30D502B2D1E583B4FF0302096CE582B4FF0302094F
:200630006C258340072482400B020956248314500302096CF582EA8DF0A4A8F0EA8EF0A452
:2006500028F8E435F0F9EB8DF0A428E935F0F9E433CA8FF0A429F9EA35F0FAEBF88EF0A4F9
:2006700029F9EA35F0FAE433FBEC8DF0A429F9EA35F0FAE43BFBE88FF0A42AFAEB35F0FBA1
:20069000E433CCFD8EF0A42AFAEB35F0FBE43CFCED8FF0A42BFBEC35F0FC20E7031206E1B7
:0306B00002093507
:2006B300AA82AB83A2F73392D1F5826002D2F7ACF0E58124F9F8E6FD08E6FE0886F008E6AA
:0E06D300A2F73392D5F5836002D2F7AFF02282
:06003500E478FFF6D8FD9F
:2006E1007804EC7011E58224F8500AF582E4C9CACBFCD8EF22EC7820058220E713D5820118
:1307010022C3E933F9EA33FAEB33FBEC33FCD8EA15822225
:2007140085820B85830C85F00DF50EA908AA09AB0A850B82850C83850DF0E50EC003C002E1
:20073400C001120B30120B8BAC82AD83AEF0FFD001D002D00389828A838BF0EC12079EA3A5
:20075400ED12079EA3EE12079EA3EF12079EC004C005C006C007850B82850C83850DF0E5AD
:190774000E120605AC82AD83AEF0FFE58124FCF5818C828D838EF0EF229D
:200013007900E94400601B7A00900BCE780175A000E493F2A308B8000205A0D9F4DAF275BA
:02003300A0FF2C
:11078D00FFA88118181208D61208B8E96401F582225A
:1B079E0020F71130F6138883A88220F509F6A8837583002280FEF280F5F0225A
:2007B900FFA88118181208D6D2D133E6400730E70B7582002220E70675820122C2D11208C6
:1007D900B8E97003F5822220D101B3E433F582220E
:2007E900E50F451060467A01E50F25E0F50FE510334012F510E582950FE583951040030AA5
:2008090080E6C3E51013F510E50F13F50FC3E582950FF5F0E58395104005F58385F082C357
:0D082900E51013F510E50F13F50FDAE122CD
:20003B007800E84400600A790175A000E4F309D8FC7800E84400600C7900900001E4F0A3C3
:04005B00D8FCD9FAFA
:200836001206B37900E583B58202800D5003120984E583C39582120AEDE5D0C465D020E144
:2008560017EA2DFAEB3EFBEC3FFC50097401120AEDEC4480FC020935C3EA9DFAEB9EFBEC98
:190876009FFC500FC3E499F9E49AFAE49BFBE49CFCB2D11206E10209350C
:20088F007A10E4FBFCE58225E0F582E58333F583EB33FBEC33FCEB950FF5F0EC951040066F
:0908AF00FCABF0438201DADD220A
:2008B8007901AA82E68F82B5821318E6B5F00E18E6B5830918E68A82B58202790022B48037
:2008D8000FE5F0700AE5837006E58270027F00EFB6801518B6001018B6000B18B60006089F
:0908F80008087600220808082215
:20090100120B30700AE582458345F0700122E430D112F4700BE5F0F47006E58330E70122D1
:1409210090800022700AE5F07006E58320E70122907FFF2209
:20093500B98003EA13B34010EA2401FAE43BFBE43CFC50047C800582BC000EBB000BBA0006
:2009550008E4F5F0F583F58222A2D1E582138CF092F78B838A8222E4F583F58275F080F4C6
:0F097500A2D11322E4F583F58275F0C0747F22BE
:1A098400E582C583F582A2D133A2D592D11392D5ECCFFCEBCEFBEACDFA22FB
:20099E001206B330D502B2D1BF0009BC000302097902096CBC0003020956E583B4FF0BE537
:2009BE0082B4FF03020979020956E582B4FF0302096CC395835007247F400B020956248043
:2009DE0014500302096CF582C3ED9AEE9BEF9C40111582C3EA33F9EB33FAEC33FBE433FC40
:2009FE008005E4CCCBCAF9C08275F019C3E99DEA9EEB9FEC9400D5F002802D400EE99DF93A
:200A1E00EA9EFAEB9FFBEC9400FCC3B3E833F8E58233F582E58333F583C3E933F9EA33FA99
:200A3E00EB33FBEC33FC80C4B3E4F938FAE43582FBE43583FCD082500405827C801206E10E
:030A5E0002094D3D
:0D000600758150120BB8E582600302000303
:0B0A6100E4AC82FBFAF97486020AABD9
:200A6C00C2D5E58330E70DD2D5E4C39582F582E49583F583E51030E70BE4C3950FF50FE4AD
:160A8C009510F5101207E930D50BE4C39582F582E49583F58322CD
:130AA200FCABF0AA83A982749EC2D1F5821206E1020935FD
:200AB500C2D5E58330E70DD2D5E4C39582F582E49583F583E51030E70DB2D5E4C3950FF5CE
:180AD5000FE49510F51012088F30D50BE4C39582F582E49583F58322E8
:200AED006040F82582500274FFF582E824F8501ECCCBCAF9E4CC24F85014CBCAF9E4CB2411
:200B0D00F8500BCAF9E4CA24F8500379002224086010F8C3EC13FCEB13FBEA13FAE913F9C3
:030B2D00D8F122DA
:200B3000120BBCC3749E958240397900120AED30D126E9F42401F582EAF43400F583EBF4DC
:200B50003400F5F0ECF43400700AE582458345F0700122E430E70F22EC20E71489828A839C
:1B0B70008BF02230D10AE4F582F583F5F074802274FFF582F583F5F0747F2298
:200B8B00FCABF0AA83A982749EF582C2D1EC30E716D2D1E9F42401F9EAF43400FAEBF43469
:0D0BAB0000FBECF43400FC1206E1020935F9
:040BB8007582002220
:120BBC00AA82AB83A2F73392D1F5826002D2F7ACF0223E
:00000001FF
