:03000000020006F5
:20005F0075213F75220675235B75244F75256675266D75277D75280775297F752A6F752BA4
:20007F0077752C7C752D39752E5E752F797530717531007532007533007534007535007501
:11009F003600753700753800753900753A000200035F
:0300030002044CA8
:2000B0007E057F00EE24FFFCEF34FFFD8C068D07EC4D70F022AF82BFA0028005BFB00F800C
:2000D00007E50F24FF92A022E50F24FF92B522AF827E00BFA0028005BFB00E8007A2A0E45F
:2000F00033FE8005A2B5E433FE8E8222AF82BFA0028005BFB00F8007E50F24FF92A122E52F
:200110000F24FF92B622AF827E00BFA0028005BFB00E8007A2A1E433FE8005A2B6E433FE50
:200130008E8222AF82750F00C0071200FCD007750F018F82C0071200C51200B0D007750FCB
:20015000018F82C0071200FC1200B0D007750F008F82C0071200C51200B0D007750F008F30
:20017000820200FCAF82750F00C0071200FC1200B0D007750F008F82C0071200C51200B0D7
:20019000D007750F018F82C0071200FC1200B0D007750F018F820200C5AF827E00750F00E4
:2001B0008F82C007C0061200FC1200B0D006D007E53B20E712750F008F82C007C0061200A7
:2001D000C5D006D0078010750F018F82C007C0061200C5D006D007C007C0061200B0D00641
:2001F000D007750F018F82C007C0061200FC1200B0D006D007E53B253BF53B0EBE080040B4
:200210009C750F008F82C0071200FC1200B0D007750F018F82C0071200C51200B0D00775ED
:200230000F018F82C0071200FC1200B0D0078F82C0071200DFAE82C0061200B0D006D007F1
:20025000750F008F82C0061200FCD0068E8222AF827E007D00750F018F82C007C006C00509
:200270001200FCD005D006D0078F82C007C006C0051200DFE582D005D006D00760034306F5
:2002900001BD07005003EE2EFE750F008F82C007C006C0051200FCD005D006D0070DBD08D3
:2002B0000040B28E82227582AA12041A7582B0120133753B917582B01201A97582B01202ED
:2002D0005FAF827582B0C00712025F7582A812041A7582B0120133753B917582B01201A93D
:2002F0007582B012025F85823D7582A912041A7582B0120133753B917582B01201A9758238
:20031000B012025F85823C7582B0120174D0078F82120965AA82AB83ACF0FFE4C0E0C0E0B8
:200330007480C0E0743EC0E08A828B838CF0EF1205BF85823E85833F85F040F541E581246B
:20035000FCF581AD3C7E00A83D7900EDC398F582EE99F5838D0F8E101209D31208BBA88271
:20037000A983ADF0FEC000C001C005C006853E82853F838540F0E541120819AA82AB83ACFA
:20039000F0FFE58124FCF5818A828B838CF0EF227582A0120133753BE07582A01201A97586
:2003B0003B007582A01201A97F00C0071200B0D007EF2431F9873B7582A0C0071201A9D0D7
:2003D000070FBF0A0040E37582A0020174AF827582A0C007120133753BE07582A01201A945
:2003F000D0078F3B7582A01201A97582A0020174AF827582ACC00712041AD0078F3B758288
:20041000B01201A97582B0020174AF827582B0C007120133753B907582B01201A9D0078F54
:200430003B7582B00201A97EF47F01EE24FFFCEF34FFFD8C068D07EC4D70F022D200E4F574
:2004500046F547F548F549F54AF54BF54CF54D1204377582211203DD7582811203DD7582D5
:20047000021204007582EE12041A7582B01201741202B685824285834385F044F545C042BE
:20049000C043C044C0458546828547838548F0E549120747AD82E58124FCF581ED600302DC
:2004B00005B1E4C0E0C0E0C0E0C0E08542828543838544F0E545120773AD82E58124FCF565
:2004D00081ED6006E545B2E7F5458542828543838544F0E5451208C8AC82AD83750F0A7581
:2004F0001000C005C0041209D3AE82D004D005EE2421F98707750F0A7510008C828D83C0E1
:2005100007120970AD82D007ED2421F987064306808F318E3375084A750900750A40854266
:20053000828543838544F0E5451206CEAC82AD83AEF0FFC004C005C006C00790000075F00F
:20055000C874421205CAAC82AD83AEF0FFE58124FCF5818C828D838EF0EF1208C8AE82AFE9
:2005700083750F0A751000C007C0061209D3AC82D006D007EC2421F987058D37750F0A7502
:2005900010008E828F83120970AE82EE2421F987078F39D200854246854347854448854513
:0F05B000492000030204801203A0C2000204804D
:0B05BF00A8811818C6B2E7C602081990
:2005CA0012066DBC000302091DEF60FA30D502B2D1E583B4FF03020933E582B4FF0302094E
:2005EA0033258340072482400B02091D2483145003020933F582EA8DF0A4A8F0EA8EF0A444
:20060A0028F8E435F0F9EB8DF0A428E935F0F9E433CA8FF0A429F9EA35F0FAEBF88EF0A43F
:20062A0029F9EA35F0FAE433FBEC8DF0A429F9EA35F0FAE43BFBE88FF0A42AFAEB35F0FBE7
:20064A00E433CCFD8EF0A42AFAEB35F0FBE43CFCED8FF0A42BFBEC35F0FC20E70312069B43
:03066A000208FC87
:20066D00AA82AB83A2F73392D1F5826002D2F7ACF0E58124F9F8E6FD08E6FE0886F008E6F0
:0E068D00A2F73392D5F5836002D2F7AFF022C8
:06003500E478FFF6D8FD9F
:20069B007804EC7011E58224F8500AF582E4C9CACBFCD8EF22EC7820058220E713D582015E
:1306BB0022C3E933F9EA33FAEB33FBEC33FCD8EA1582226C
:2006CE0085820B85830C85F00DF50EA908AA09AB0A850B82850C83850DF0E50EC003C00228
:2006EE00C001120A4E1209A6AC82AD83AEF0FFD001D002D00389828A838BF0EC120758A3FC
:20070E00ED120758A3EE120758A3EF120758C004C005C006C007850B82850C83850DF0E5C5
:19072E000E1205BFAC82AD83AEF0FFE58124FCF5818C828D838EF0EF222A
:200013007900E94400601B7A00900ABF780175A000E493F2A308B8000205A0D9F4DAF275CA
:02003300A0FF2C
:11074700FFA8811818120890120872E96401F582222C
:1B07580020F71130F6138883A88220F509F6A8837583002280FEF280F5F022A0
:20077300FFA8811818120890D2D133E6400730E70B7582002220E70675820122C2D1120852
:1007930072E97003F5822220D101B3E433F582229A
:2007A300E50F451060467A01E50F25E0F50FE510334012F510E582950FE583951040030AEB
:2007C30080E6C3E51013F510E50F13F50FC3E582950FF5F0E58395104005F58385F082C39E
:0D07E300E51013F510E50F13F50FDAE12214
:20003B007800E84400600A790175A000E4F309D8FC7800E84400600C7900900001E4F0A3C3
:04005B00D8FCD9FAFA
:2007F0007A10E4FBFCE58225E0F582E58333F583EB33FBEC33FCEB950FF5F0EC951040060F
:09081000FCABF0438201DADD22A9
:2008190012066D7900E583B58202800D500312094BE583C39582120A0BE5D0C465D020E1C2
:2008390017EA2DFAEB3EFBEC3FFC50097401120A0BEC4480FC0208FCC3EA9DFAEB9EFBECD1
:190859009FFC500FC3E499F9E49AFAE49BFBE49CFCB2D112069B0208FCA9
:200872007901AA82E68F82B5821318E6B5F00E18E6B5830918E68A82B58202790022B4807D
:200892000FE5F0700AE5837006E58270027F00EFB6801518B6001018B6000B18B6000608E5
:0908B2000808760022080808225B
:0D08BB00AC83AB827A007900748E0209AF25
:2008C800120A4E700AE582458345F0700122E430D112F4700BE5F0F47006E58330E70122EE
:1408E80090800022700AE5F07006E58320E70122907FFF2243
:2008FC00B98003EA13B34010EA2401FAE43BFBE43CFC50047C800582BC000EBB000BBA0040
:20091C0008E4F5F0F583F58222A2D1E582138CF092F78B838A8222E4F583F58275F080F4FF
:0F093C00A2D11322E4F583F58275F0C0747F22F7
:1A094B00E582C583F582A2D133A2D592D11392D5ECCFFCEBCEFBEACDFA2234
:0B096500AC82E4FBFAF974860209AFD3
:0D00060075814D120AA9E582600302000316
:20097000C2D5E58330E70DD2D5E4C39582F582E49583F583E51030E70BE4C3950FF50FE4AA
:160990009510F5101207A330D50BE4C39582F582E49583F5832210
:2009A600FCABF0AA83A982749EF582C2D1EC30E716D2D1E9F42401F9EAF43400FAEBF43450
:0D09C60000FBECF43400FC12069B0208FC60
:2009D300C2D5E58330E70DD2D5E4C39582F582E49583F583E51030E70DB2D5E4C3950FF5B1
:1809F3000FE49510F5101207F030D50BE4C39582F582E49583F583226B
:200A0B006040F82582500274FFF582E824F8501ECCCBCAF9E4CC24F85014CBCAF9E4CB24F3
:200A2B00F8500BCAF9E4CA24F8500379002224086010F8C3EC13FCEB13FBEA13FAE913F9A6
:030A4B00D8F122BD
:200A4E00120AADC3749E958240397900120A0B30D126E9F42401F582EAF43400F583EBF4B1
:200A6E003400F5F0ECF43400700AE582458345F0700122E430E70F22EC20E71489828A837F
:1B0A8E008BF02230D10AE4F582F583F5F074802274FFF582F583F5F0747F227B
:040AA9007582002230
:120AAD00AA82AB83A2F73392D1F5826002D2F7ACF0224E
:00000001FF
